{
  "address": "0xe7f1725E7734CE288F8367e1Bb143E90bb3F0512",
  "abi": [
    {
      "inputs": [
        {
          "internalType": "uint8",
          "name": "_percentOfRoyality",
          "type": "uint8"
        }
      ],
      "stateMutability": "nonpayable",
      "type": "constructor"
    },
    {
      "inputs": [
        {
          "internalType": "address",
          "name": "nftAddress",
          "type": "address"
        },
        {
          "internalType": "uint256",
          "name": "tokenId",
          "type": "uint256"
        }
      ],
      "name": "NftMarketPlace__AlreadyListed",
      "type": "error"
    },
    {
      "inputs": [],
      "name": "NftMarketPlace__NoProceeds",
      "type": "error"
    },
    {
      "inputs": [],
      "name": "NftMarketPlace__NotApprovedForMarketPlace",
      "type": "error"
    },
    {
      "inputs": [
        {
          "internalType": "address",
          "name": "nftAddress",
          "type": "address"
        },
        {
          "internalType": "uint256",
          "name": "tokenId",
          "type": "uint256"
        }
      ],
      "name": "NftMarketPlace__NotListed",
      "type": "error"
    },
    {
      "inputs": [],
      "name": "NftMarketPlace__PriceMustBeAboveZero",
      "type": "error"
    },
    {
      "inputs": [
        {
          "internalType": "address",
          "name": "nftAddress",
          "type": "address"
        },
        {
          "internalType": "uint256",
          "name": "tokenId",
          "type": "uint256"
        },
        {
          "internalType": "uint256",
          "name": "nftPrice",
          "type": "uint256"
        }
      ],
      "name": "NftMarketPlace__PriceNotMet",
      "type": "error"
    },
    {
      "inputs": [],
      "name": "NotOwner",
      "type": "error"
    },
    {
      "anonymous": false,
      "inputs": [
        {
          "indexed": true,
          "internalType": "address",
          "name": "buyer",
          "type": "address"
        },
        {
          "indexed": true,
          "internalType": "address",
          "name": "nftAddress",
          "type": "address"
        },
        {
          "indexed": true,
          "internalType": "uint256",
          "name": "tokenId",
          "type": "uint256"
        },
        {
          "indexed": false,
          "internalType": "uint256",
          "name": "price",
          "type": "uint256"
        }
      ],
      "name": "ItemBought",
      "type": "event"
    },
    {
      "anonymous": false,
      "inputs": [
        {
          "indexed": true,
          "internalType": "address",
          "name": "seller",
          "type": "address"
        },
        {
          "indexed": true,
          "internalType": "address",
          "name": "nftAddress",
          "type": "address"
        },
        {
          "indexed": false,
          "internalType": "uint256",
          "name": "tokenId",
          "type": "uint256"
        }
      ],
      "name": "ItemCancled",
      "type": "event"
    },
    {
      "anonymous": false,
      "inputs": [
        {
          "indexed": true,
          "internalType": "address",
          "name": "seller",
          "type": "address"
        },
        {
          "indexed": true,
          "internalType": "address",
          "name": "nftAddress",
          "type": "address"
        },
        {
          "indexed": true,
          "internalType": "uint256",
          "name": "tokenId",
          "type": "uint256"
        },
        {
          "indexed": false,
          "internalType": "uint256",
          "name": "price",
          "type": "uint256"
        }
      ],
      "name": "ItemListed",
      "type": "event"
    },
    {
      "inputs": [],
      "name": "PERCENT_OF_ROYALITY",
      "outputs": [
        {
          "internalType": "uint8",
          "name": "",
          "type": "uint8"
        }
      ],
      "stateMutability": "view",
      "type": "function"
    },
    {
      "inputs": [
        {
          "internalType": "address",
          "name": "nftAddress",
          "type": "address"
        },
        {
          "internalType": "uint256",
          "name": "tokenId",
          "type": "uint256"
        }
      ],
      "name": "buyItem",
      "outputs": [],
      "stateMutability": "payable",
      "type": "function"
    },
    {
      "inputs": [
        {
          "internalType": "address",
          "name": "nftAddress",
          "type": "address"
        },
        {
          "internalType": "uint256",
          "name": "tokenId",
          "type": "uint256"
        }
      ],
      "name": "cancelListing",
      "outputs": [],
      "stateMutability": "nonpayable",
      "type": "function"
    },
    {
      "inputs": [
        {
          "internalType": "address",
          "name": "nftAddress",
          "type": "address"
        },
        {
          "internalType": "uint256",
          "name": "tokenId",
          "type": "uint256"
        }
      ],
      "name": "getListing",
      "outputs": [
        {
          "components": [
            {
              "internalType": "address",
              "name": "seller",
              "type": "address"
            },
            {
              "internalType": "uint256",
              "name": "price",
              "type": "uint256"
            }
          ],
          "internalType": "struct Nft_Marketplace.Listing",
          "name": "",
          "type": "tuple"
        }
      ],
      "stateMutability": "view",
      "type": "function"
    },
    {
      "inputs": [
        {
          "internalType": "address",
          "name": "seller",
          "type": "address"
        }
      ],
      "name": "getProceeds",
      "outputs": [
        {
          "internalType": "uint256",
          "name": "",
          "type": "uint256"
        }
      ],
      "stateMutability": "view",
      "type": "function"
    },
    {
      "inputs": [
        {
          "internalType": "address",
          "name": "nftAddress",
          "type": "address"
        },
        {
          "internalType": "uint256",
          "name": "tokenId",
          "type": "uint256"
        },
        {
          "internalType": "uint256",
          "name": "price",
          "type": "uint256"
        }
      ],
      "name": "listItem",
      "outputs": [],
      "stateMutability": "nonpayable",
      "type": "function"
    },
    {
      "inputs": [
        {
          "internalType": "address",
          "name": "nftAddress",
          "type": "address"
        },
        {
          "internalType": "uint256",
          "name": "tokenId",
          "type": "uint256"
        },
        {
          "internalType": "uint256",
          "name": "newPrice",
          "type": "uint256"
        }
      ],
      "name": "updateListing",
      "outputs": [],
      "stateMutability": "nonpayable",
      "type": "function"
    },
    {
      "inputs": [],
      "name": "withdrawProceeds",
      "outputs": [],
      "stateMutability": "nonpayable",
      "type": "function"
    }
  ],
  "transactionHash": "0x3b35876acf47af57a4db1656febaddb40ad082606fe9db8e78d0029ed077e79b",
  "args": [
    10
  ],
  "numDeployments": 1,
  "solcInputHash": "a53a12a011a9abd517ec0809558ad3f2",
  "bytecode": "0x60a06040523480156200001157600080fd5b5060405162001a4238038062001a42833981810160405281019062000037919062000097565b60016000819055508060ff1660808160ff168152505050620000c9565b600080fd5b600060ff82169050919050565b620000718162000059565b81146200007d57600080fd5b50565b600081519050620000918162000066565b92915050565b600060208284031215620000b057620000af62000054565b5b6000620000c08482850162000080565b91505092915050565b60805161195d620000e560003960006101d5015261195d6000f3fe60806040526004361061007b5760003560e01c80639038e6931161004e5780639038e6931461014e5780639f37092a14610165578063b2ddee0614610181578063f772adf1146101aa5761007b565b8063231421eb1461008057806330cfeda9146100ab57806388700d1c146100e857806389bfd38f14610125575b600080fd5b34801561008c57600080fd5b506100956101d3565b6040516100a291906114a7565b60405180910390f35b3480156100b757600080fd5b506100d260048036038101906100cd9190611525565b6101f7565b6040516100df919061156b565b60405180910390f35b3480156100f457600080fd5b5061010f600480360381019061010a91906115b2565b610240565b60405161011c919061163f565b60405180910390f35b34801561013157600080fd5b5061014c6004803603810190610147919061165a565b61030b565b005b34801561015a57600080fd5b506101636107b7565b005b61017f600480360381019061017a91906115b2565b61092a565b005b34801561018d57600080fd5b506101a860048036038101906101a391906115b2565b610d72565b005b3480156101b657600080fd5b506101d160048036038101906101cc919061165a565b6110b1565b005b7f000000000000000000000000000000000000000000000000000000000000000081565b6000600260008373ffffffffffffffffffffffffffffffffffffffff1673ffffffffffffffffffffffffffffffffffffffff168152602001908152602001600020549050919050565b61024861145b565b600160008473ffffffffffffffffffffffffffffffffffffffff1673ffffffffffffffffffffffffffffffffffffffff16815260200190815260200160002060008381526020019081526020016000206040518060400160405290816000820160009054906101000a900473ffffffffffffffffffffffffffffffffffffffff1673ffffffffffffffffffffffffffffffffffffffff1673ffffffffffffffffffffffffffffffffffffffff168152602001600182015481525050905092915050565b82823360008390508173ffffffffffffffffffffffffffffffffffffffff168173ffffffffffffffffffffffffffffffffffffffff16636352211e856040518263ffffffff1660e01b8152600401610363919061156b565b602060405180830381865afa158015610380573d6000803e3d6000fd5b505050506040513d601f19601f820116820180604052508101906103a491906116c2565b73ffffffffffffffffffffffffffffffffffffffff16146103f1576040517f30cd747100000000000000000000000000000000000000000000000000000000815260040160405180910390fd5b600087876000600160008473ffffffffffffffffffffffffffffffffffffffff1673ffffffffffffffffffffffffffffffffffffffff16815260200190815260200160002060008381526020019081526020016000206040518060400160405290816000820160009054906101000a900473ffffffffffffffffffffffffffffffffffffffff1673ffffffffffffffffffffffffffffffffffffffff1673ffffffffffffffffffffffffffffffffffffffff1681526020016001820154815250509050831561050a5760008160200151116105055782826040517f2e650be00000000000000000000000000000000000000000000000000000000081526004016104fc9291906116fe565b60405180910390fd5b610557565b6000816020015111156105565782826040517ffa1d424f00000000000000000000000000000000000000000000000000000000815260040161054d9291906116fe565b60405180910390fd5b5b60008911610591576040517f01e6e2e700000000000000000000000000000000000000000000000000000000815260040160405180910390fd5b60008b90503073ffffffffffffffffffffffffffffffffffffffff168173ffffffffffffffffffffffffffffffffffffffff1663081812fc8d6040518263ffffffff1660e01b81526004016105e6919061156b565b602060405180830381865afa158015610603573d6000803e3d6000fd5b505050506040513d601f19601f8201168201806040525081019061062791906116c2565b73ffffffffffffffffffffffffffffffffffffffff1614610674576040517f94f87f7200000000000000000000000000000000000000000000000000000000815260040160405180910390fd5b60405180604001604052803373ffffffffffffffffffffffffffffffffffffffff1681526020018b815250600160008e73ffffffffffffffffffffffffffffffffffffffff1673ffffffffffffffffffffffffffffffffffffffff16815260200190815260200160002060008d815260200190815260200160002060008201518160000160006101000a81548173ffffffffffffffffffffffffffffffffffffffff021916908373ffffffffffffffffffffffffffffffffffffffff160217905550602082015181600101559050508a8c73ffffffffffffffffffffffffffffffffffffffff163373ffffffffffffffffffffffffffffffffffffffff167fd547e933094f12a9159076970143ebe73234e64480317844b0dcb36117116de48d6040516107a1919061156b565b60405180910390a4505050505050505050505050565b6000600260003373ffffffffffffffffffffffffffffffffffffffff1673ffffffffffffffffffffffffffffffffffffffff16815260200190815260200160002054905060008111610835576040517faaefe00600000000000000000000000000000000000000000000000000000000815260040160405180910390fd5b6000600260003373ffffffffffffffffffffffffffffffffffffffff1673ffffffffffffffffffffffffffffffffffffffff1681526020019081526020016000208190555060003373ffffffffffffffffffffffffffffffffffffffff16826040516108a090611758565b60006040518083038185875af1925050503d80600081146108dd576040519150601f19603f3d011682016040523d82523d6000602084013e6108e2565b606091505b5050905080610926576040517f08c379a000000000000000000000000000000000000000000000000000000000815260040161091d906117ca565b60405180910390fd5b5050565b610932611402565b600182826000600160008473ffffffffffffffffffffffffffffffffffffffff1673ffffffffffffffffffffffffffffffffffffffff16815260200190815260200160002060008381526020019081526020016000206040518060400160405290816000820160009054906101000a900473ffffffffffffffffffffffffffffffffffffffff1673ffffffffffffffffffffffffffffffffffffffff1673ffffffffffffffffffffffffffffffffffffffff16815260200160018201548152505090508315610a4b576000816020015111610a465782826040517f2e650be0000000000000000000000000000000000000000000000000000000008152600401610a3d9291906116fe565b60405180910390fd5b610a98565b600081602001511115610a975782826040517ffa1d424f000000000000000000000000000000000000000000000000000000008152600401610a8e9291906116fe565b60405180910390fd5b5b6000600160008873ffffffffffffffffffffffffffffffffffffffff1673ffffffffffffffffffffffffffffffffffffffff16815260200190815260200160002060008781526020019081526020016000206040518060400160405290816000820160009054906101000a900473ffffffffffffffffffffffffffffffffffffffff1673ffffffffffffffffffffffffffffffffffffffff1673ffffffffffffffffffffffffffffffffffffffff16815260200160018201548152505090508060200151341015610ba857868682602001516040517f2425ddb3000000000000000000000000000000000000000000000000000000008152600401610b9f939291906117ea565b60405180910390fd5b3460026000836000015173ffffffffffffffffffffffffffffffffffffffff1673ffffffffffffffffffffffffffffffffffffffff1681526020019081526020016000206000828254610bfb9190611850565b92505081905550600160008873ffffffffffffffffffffffffffffffffffffffff1673ffffffffffffffffffffffffffffffffffffffff1681526020019081526020016000206000878152602001908152602001600020600080820160006101000a81549073ffffffffffffffffffffffffffffffffffffffff0219169055600182016000905550508673ffffffffffffffffffffffffffffffffffffffff166342842e0e826000015133896040518463ffffffff1660e01b8152600401610cc593929190611884565b600060405180830381600087803b158015610cdf57600080fd5b505af1158015610cf3573d6000803e3d6000fd5b50505050858773ffffffffffffffffffffffffffffffffffffffff163373ffffffffffffffffffffffffffffffffffffffff167f263223b1dd81e51054a4e6f791d45a4a1ddb4aadcd93a2dfd892615c3fdac1878460200151604051610d59919061156b565b60405180910390a45050505050610d6e611451565b5050565b81813360008390508173ffffffffffffffffffffffffffffffffffffffff168173ffffffffffffffffffffffffffffffffffffffff16636352211e856040518263ffffffff1660e01b8152600401610dca919061156b565b602060405180830381865afa158015610de7573d6000803e3d6000fd5b505050506040513d601f19601f82011682018060405250810190610e0b91906116c2565b73ffffffffffffffffffffffffffffffffffffffff1614610e58576040517f30cd747100000000000000000000000000000000000000000000000000000000815260040160405180910390fd5b600186866000600160008473ffffffffffffffffffffffffffffffffffffffff1673ffffffffffffffffffffffffffffffffffffffff16815260200190815260200160002060008381526020019081526020016000206040518060400160405290816000820160009054906101000a900473ffffffffffffffffffffffffffffffffffffffff1673ffffffffffffffffffffffffffffffffffffffff1673ffffffffffffffffffffffffffffffffffffffff16815260200160018201548152505090508315610f71576000816020015111610f6c5782826040517f2e650be0000000000000000000000000000000000000000000000000000000008152600401610f639291906116fe565b60405180910390fd5b610fbe565b600081602001511115610fbd5782826040517ffa1d424f000000000000000000000000000000000000000000000000000000008152600401610fb49291906116fe565b60405180910390fd5b5b600160008b73ffffffffffffffffffffffffffffffffffffffff1673ffffffffffffffffffffffffffffffffffffffff16815260200190815260200160002060008a8152602001908152602001600020600080820160006101000a81549073ffffffffffffffffffffffffffffffffffffffff0219169055600182016000905550508973ffffffffffffffffffffffffffffffffffffffff163373ffffffffffffffffffffffffffffffffffffffff167f057277cb164eea0ad658a49af4e4e3251746a8c11bc0b52a8b86f6f9f3d62abf8b60405161109d919061156b565b60405180910390a350505050505050505050565b82823360008390508173ffffffffffffffffffffffffffffffffffffffff168173ffffffffffffffffffffffffffffffffffffffff16636352211e856040518263ffffffff1660e01b8152600401611109919061156b565b602060405180830381865afa158015611126573d6000803e3d6000fd5b505050506040513d601f19601f8201168201806040525081019061114a91906116c2565b73ffffffffffffffffffffffffffffffffffffffff1614611197576040517f30cd747100000000000000000000000000000000000000000000000000000000815260040160405180910390fd5b600187876000600160008473ffffffffffffffffffffffffffffffffffffffff1673ffffffffffffffffffffffffffffffffffffffff16815260200190815260200160002060008381526020019081526020016000206040518060400160405290816000820160009054906101000a900473ffffffffffffffffffffffffffffffffffffffff1673ffffffffffffffffffffffffffffffffffffffff1673ffffffffffffffffffffffffffffffffffffffff168152602001600182015481525050905083156112b05760008160200151116112ab5782826040517f2e650be00000000000000000000000000000000000000000000000000000000081526004016112a29291906116fe565b60405180910390fd5b6112fd565b6000816020015111156112fc5782826040517ffa1d424f0000000000000000000000000000000000000000000000000000000081526004016112f39291906116fe565b60405180910390fd5b5b60008911611337576040517f01e6e2e700000000000000000000000000000000000000000000000000000000815260040160405180910390fd5b88600160008d73ffffffffffffffffffffffffffffffffffffffff1673ffffffffffffffffffffffffffffffffffffffff16815260200190815260200160002060008c815260200190815260200160002060010181905550898b73ffffffffffffffffffffffffffffffffffffffff163373ffffffffffffffffffffffffffffffffffffffff167fd547e933094f12a9159076970143ebe73234e64480317844b0dcb36117116de48c6040516113ed919061156b565b60405180910390a45050505050505050505050565b600260005403611447576040517f08c379a000000000000000000000000000000000000000000000000000000000815260040161143e90611907565b60405180910390fd5b6002600081905550565b6001600081905550565b6040518060400160405280600073ffffffffffffffffffffffffffffffffffffffff168152602001600081525090565b600060ff82169050919050565b6114a18161148b565b82525050565b60006020820190506114bc6000830184611498565b92915050565b600080fd5b600073ffffffffffffffffffffffffffffffffffffffff82169050919050565b60006114f2826114c7565b9050919050565b611502816114e7565b811461150d57600080fd5b50565b60008135905061151f816114f9565b92915050565b60006020828403121561153b5761153a6114c2565b5b600061154984828501611510565b91505092915050565b6000819050919050565b61156581611552565b82525050565b6000602082019050611580600083018461155c565b92915050565b61158f81611552565b811461159a57600080fd5b50565b6000813590506115ac81611586565b92915050565b600080604083850312156115c9576115c86114c2565b5b60006115d785828601611510565b92505060206115e88582860161159d565b9150509250929050565b6115fb816114e7565b82525050565b61160a81611552565b82525050565b60408201600082015161162660008501826115f2565b5060208201516116396020850182611601565b50505050565b60006040820190506116546000830184611610565b92915050565b600080600060608486031215611673576116726114c2565b5b600061168186828701611510565b93505060206116928682870161159d565b92505060406116a38682870161159d565b9150509250925092565b6000815190506116bc816114f9565b92915050565b6000602082840312156116d8576116d76114c2565b5b60006116e6848285016116ad565b91505092915050565b6116f8816114e7565b82525050565b600060408201905061171360008301856116ef565b611720602083018461155c565b9392505050565b600081905092915050565b50565b6000611742600083611727565b915061174d82611732565b600082019050919050565b600061176382611735565b9150819050919050565b600082825260208201905092915050565b7f5472616e73666572206661696c65640000000000000000000000000000000000600082015250565b60006117b4600f8361176d565b91506117bf8261177e565b602082019050919050565b600060208201905081810360008301526117e3816117a7565b9050919050565b60006060820190506117ff60008301866116ef565b61180c602083018561155c565b611819604083018461155c565b949350505050565b7f4e487b7100000000000000000000000000000000000000000000000000000000600052601160045260246000fd5b600061185b82611552565b915061186683611552565b925082820190508082111561187e5761187d611821565b5b92915050565b600060608201905061189960008301866116ef565b6118a660208301856116ef565b6118b3604083018461155c565b949350505050565b7f5265656e7472616e637947756172643a207265656e7472616e742063616c6c00600082015250565b60006118f1601f8361176d565b91506118fc826118bb565b602082019050919050565b60006020820190508181036000830152611920816118e4565b905091905056fea2646970667358221220beb6ed1b5912ca85deb5867cb225333c1ecf1978c5956cf4a46b374ff70b320664736f6c63430008110033",
  "devdoc": {
    "kind": "dev",
    "methods": {},
    "version": 1
  },
  "userdoc": {
    "kind": "user",
    "methods": {},
    "version": 1
  },
  "storageLayout": {
    "storage": [
      {
        "astId": 10,
        "contract": "contracts/NFT-Marketplace.sol:Nft_Marketplace",
        "label": "_status",
        "offset": 0,
        "slot": "0",
        "type": "t_uint256"
      },
      {
        "astId": 2645,
        "contract": "contracts/NFT-Marketplace.sol:Nft_Marketplace",
        "label": "s_listings",
        "offset": 0,
        "slot": "1",
        "type": "t_mapping(t_address,t_mapping(t_uint256,t_struct(Listing)2608_storage))"
      },
      {
        "astId": 2649,
        "contract": "contracts/NFT-Marketplace.sol:Nft_Marketplace",
        "label": "s_proceeds",
        "offset": 0,
        "slot": "2",
        "type": "t_mapping(t_address,t_uint256)"
      }
    ],
    "types": {
      "t_address": {
        "encoding": "inplace",
        "label": "address",
        "numberOfBytes": "20"
      },
      "t_mapping(t_address,t_mapping(t_uint256,t_struct(Listing)2608_storage))": {
        "encoding": "mapping",
        "key": "t_address",
        "label": "mapping(address => mapping(uint256 => struct Nft_Marketplace.Listing))",
        "numberOfBytes": "32",
        "value": "t_mapping(t_uint256,t_struct(Listing)2608_storage)"
      },
      "t_mapping(t_address,t_uint256)": {
        "encoding": "mapping",
        "key": "t_address",
        "label": "mapping(address => uint256)",
        "numberOfBytes": "32",
        "value": "t_uint256"
      },
      "t_mapping(t_uint256,t_struct(Listing)2608_storage)": {
        "encoding": "mapping",
        "key": "t_uint256",
        "label": "mapping(uint256 => struct Nft_Marketplace.Listing)",
        "numberOfBytes": "32",
        "value": "t_struct(Listing)2608_storage"
      },
      "t_struct(Listing)2608_storage": {
        "encoding": "inplace",
        "label": "struct Nft_Marketplace.Listing",
        "members": [
          {
            "astId": 2605,
            "contract": "contracts/NFT-Marketplace.sol:Nft_Marketplace",
            "label": "seller",
            "offset": 0,
            "slot": "0",
            "type": "t_address"
          },
          {
            "astId": 2607,
            "contract": "contracts/NFT-Marketplace.sol:Nft_Marketplace",
            "label": "price",
            "offset": 0,
            "slot": "1",
            "type": "t_uint256"
          }
        ],
        "numberOfBytes": "64"
      },
      "t_uint256": {
        "encoding": "inplace",
        "label": "uint256",
        "numberOfBytes": "32"
      }
    }
  }
}